{
  "contractName": "MyToken",
  "abi": [
    {
      "inputs": [],
      "stateMutability": "nonpayable",
      "type": "constructor"
    },
    {
      "anonymous": false,
      "inputs": [
        {
          "indexed": true,
          "internalType": "address",
          "name": "owner",
          "type": "address"
        },
        {
          "indexed": true,
          "internalType": "address",
          "name": "approved",
          "type": "address"
        },
        {
          "indexed": true,
          "internalType": "uint256",
          "name": "tokenId",
          "type": "uint256"
        }
      ],
      "name": "Approval",
      "type": "event"
    },
    {
      "anonymous": false,
      "inputs": [
        {
          "indexed": true,
          "internalType": "address",
          "name": "owner",
          "type": "address"
        },
        {
          "indexed": true,
          "internalType": "address",
          "name": "operator",
          "type": "address"
        },
        {
          "indexed": false,
          "internalType": "bool",
          "name": "approved",
          "type": "bool"
        }
      ],
      "name": "ApprovalForAll",
      "type": "event"
    },
    {
      "anonymous": false,
      "inputs": [
        {
          "indexed": true,
          "internalType": "address",
          "name": "previousOwner",
          "type": "address"
        },
        {
          "indexed": true,
          "internalType": "address",
          "name": "newOwner",
          "type": "address"
        }
      ],
      "name": "OwnershipTransferred",
      "type": "event"
    },
    {
      "anonymous": false,
      "inputs": [
        {
          "indexed": true,
          "internalType": "address",
          "name": "from",
          "type": "address"
        },
        {
          "indexed": true,
          "internalType": "address",
          "name": "to",
          "type": "address"
        },
        {
          "indexed": true,
          "internalType": "uint256",
          "name": "tokenId",
          "type": "uint256"
        }
      ],
      "name": "Transfer",
      "type": "event"
    },
    {
      "inputs": [],
      "name": "AuctionState",
      "outputs": [
        {
          "internalType": "enum MyToken.auctionState",
          "name": "",
          "type": "uint8"
        }
      ],
      "stateMutability": "view",
      "type": "function",
      "constant": true
    },
    {
      "inputs": [],
      "name": "a",
      "outputs": [
        {
          "internalType": "uint256",
          "name": "",
          "type": "uint256"
        }
      ],
      "stateMutability": "view",
      "type": "function",
      "constant": true
    },
    {
      "inputs": [
        {
          "internalType": "address",
          "name": "to",
          "type": "address"
        },
        {
          "internalType": "uint256",
          "name": "tokenId",
          "type": "uint256"
        }
      ],
      "name": "approve",
      "outputs": [],
      "stateMutability": "nonpayable",
      "type": "function"
    },
    {
      "inputs": [
        {
          "internalType": "address",
          "name": "owner",
          "type": "address"
        }
      ],
      "name": "balanceOf",
      "outputs": [
        {
          "internalType": "uint256",
          "name": "",
          "type": "uint256"
        }
      ],
      "stateMutability": "view",
      "type": "function",
      "constant": true
    },
    {
      "inputs": [
        {
          "internalType": "uint256",
          "name": "tokenId",
          "type": "uint256"
        }
      ],
      "name": "getApproved",
      "outputs": [
        {
          "internalType": "address",
          "name": "",
          "type": "address"
        }
      ],
      "stateMutability": "view",
      "type": "function",
      "constant": true
    },
    {
      "inputs": [
        {
          "internalType": "address",
          "name": "owner",
          "type": "address"
        },
        {
          "internalType": "address",
          "name": "operator",
          "type": "address"
        }
      ],
      "name": "isApprovedForAll",
      "outputs": [
        {
          "internalType": "bool",
          "name": "",
          "type": "bool"
        }
      ],
      "stateMutability": "view",
      "type": "function",
      "constant": true
    },
    {
      "inputs": [],
      "name": "name",
      "outputs": [
        {
          "internalType": "string",
          "name": "",
          "type": "string"
        }
      ],
      "stateMutability": "view",
      "type": "function",
      "constant": true
    },
    {
      "inputs": [],
      "name": "owner",
      "outputs": [
        {
          "internalType": "address",
          "name": "",
          "type": "address"
        }
      ],
      "stateMutability": "view",
      "type": "function",
      "constant": true
    },
    {
      "inputs": [
        {
          "internalType": "uint256",
          "name": "tokenId",
          "type": "uint256"
        }
      ],
      "name": "ownerOf",
      "outputs": [
        {
          "internalType": "address",
          "name": "",
          "type": "address"
        }
      ],
      "stateMutability": "view",
      "type": "function",
      "constant": true
    },
    {
      "inputs": [],
      "name": "renounceOwnership",
      "outputs": [],
      "stateMutability": "nonpayable",
      "type": "function"
    },
    {
      "inputs": [
        {
          "internalType": "address",
          "name": "from",
          "type": "address"
        },
        {
          "internalType": "address",
          "name": "to",
          "type": "address"
        },
        {
          "internalType": "uint256",
          "name": "tokenId",
          "type": "uint256"
        }
      ],
      "name": "safeTransferFrom",
      "outputs": [],
      "stateMutability": "nonpayable",
      "type": "function"
    },
    {
      "inputs": [
        {
          "internalType": "address",
          "name": "from",
          "type": "address"
        },
        {
          "internalType": "address",
          "name": "to",
          "type": "address"
        },
        {
          "internalType": "uint256",
          "name": "tokenId",
          "type": "uint256"
        },
        {
          "internalType": "bytes",
          "name": "_data",
          "type": "bytes"
        }
      ],
      "name": "safeTransferFrom",
      "outputs": [],
      "stateMutability": "nonpayable",
      "type": "function"
    },
    {
      "inputs": [
        {
          "internalType": "address",
          "name": "operator",
          "type": "address"
        },
        {
          "internalType": "bool",
          "name": "approved",
          "type": "bool"
        }
      ],
      "name": "setApprovalForAll",
      "outputs": [],
      "stateMutability": "nonpayable",
      "type": "function"
    },
    {
      "inputs": [
        {
          "internalType": "address",
          "name": "",
          "type": "address"
        }
      ],
      "name": "shareOf",
      "outputs": [
        {
          "internalType": "uint256",
          "name": "",
          "type": "uint256"
        }
      ],
      "stateMutability": "view",
      "type": "function",
      "constant": true
    },
    {
      "inputs": [],
      "name": "sharesLeft",
      "outputs": [
        {
          "internalType": "uint256",
          "name": "",
          "type": "uint256"
        }
      ],
      "stateMutability": "view",
      "type": "function",
      "constant": true
    },
    {
      "inputs": [],
      "name": "startTime",
      "outputs": [
        {
          "internalType": "uint256",
          "name": "",
          "type": "uint256"
        }
      ],
      "stateMutability": "view",
      "type": "function",
      "constant": true
    },
    {
      "inputs": [
        {
          "internalType": "bytes4",
          "name": "interfaceId",
          "type": "bytes4"
        }
      ],
      "name": "supportsInterface",
      "outputs": [
        {
          "internalType": "bool",
          "name": "",
          "type": "bool"
        }
      ],
      "stateMutability": "view",
      "type": "function",
      "constant": true
    },
    {
      "inputs": [],
      "name": "symbol",
      "outputs": [
        {
          "internalType": "string",
          "name": "",
          "type": "string"
        }
      ],
      "stateMutability": "view",
      "type": "function",
      "constant": true
    },
    {
      "inputs": [
        {
          "internalType": "uint256",
          "name": "tokenId",
          "type": "uint256"
        }
      ],
      "name": "tokenURI",
      "outputs": [
        {
          "internalType": "string",
          "name": "",
          "type": "string"
        }
      ],
      "stateMutability": "view",
      "type": "function",
      "constant": true
    },
    {
      "inputs": [
        {
          "internalType": "address",
          "name": "from",
          "type": "address"
        },
        {
          "internalType": "address",
          "name": "to",
          "type": "address"
        },
        {
          "internalType": "uint256",
          "name": "tokenId",
          "type": "uint256"
        }
      ],
      "name": "transferFrom",
      "outputs": [],
      "stateMutability": "nonpayable",
      "type": "function"
    },
    {
      "inputs": [
        {
          "internalType": "address",
          "name": "newOwner",
          "type": "address"
        }
      ],
      "name": "transferOwnership",
      "outputs": [],
      "stateMutability": "nonpayable",
      "type": "function"
    },
    {
      "inputs": [],
      "name": "buy",
      "outputs": [],
      "stateMutability": "payable",
      "type": "function",
      "payable": true
    }
  ],
  "bytecode": "0x60806040524260075566038d7ea4c6800060085560056009556000600a553480156200002a57600080fd5b506040518060400160405280600781526020017f4d79546f6b656e000000000000000000000000000000000000000000000000008152506040518060400160405280600481526020017f4d4e4654000000000000000000000000000000000000000000000000000000008152508160009080519060200190620000af929190620001c9565b508060019080519060200190620000c8929190620001c9565b505050620000eb620000df620000fb60201b60201c565b6200010360201b60201c565b620f4240600b81905550620002dd565b600033905090565b6000600660009054906101000a900473ffffffffffffffffffffffffffffffffffffffff16905081600660006101000a81548173ffffffffffffffffffffffffffffffffffffffff021916908373ffffffffffffffffffffffffffffffffffffffff1602179055508173ffffffffffffffffffffffffffffffffffffffff168173ffffffffffffffffffffffffffffffffffffffff167f8be0079c531659141344cd1fd0a4f28419497f9722a3daafe3b4186f6b6457e060405160405180910390a35050565b828054620001d790620002a8565b90600052602060002090601f016020900481019282620001fb576000855562000247565b82601f106200021657805160ff191683800117855562000247565b8280016001018555821562000247579182015b828111156200024657825182559160200191906001019062000229565b5b5090506200025691906200025a565b5090565b5b80821115620002755760008160009055506001016200025b565b5090565b7f4e487b7100000000000000000000000000000000000000000000000000000000600052602260045260246000fd5b60006002820490506001821680620002c157607f821691505b602082108103620002d757620002d662000279565b5b50919050565b612c6580620002ed6000396000f3fe6080604052600436106101355760003560e01c8063715018a6116100ab578063a22cb4651161006f578063a22cb4651461042a578063a6f2ae3a14610453578063b88d4fde1461045d578063c87b56dd14610486578063e985e9c5146104c3578063f2fde38b1461050057610135565b8063715018a61461036757806378e979251461037e57806387a0f296146103a95780638da5cb5b146103d457806395d89b41146103ff57610135565b806321e5e2c4116100fd57806321e5e2c41461023357806323b872dd1461027057806342842e0e146102995780636352211e146102c257806364fcc8b2146102ff57806370a082311461032a57610135565b806301ffc9a71461013a57806306fdde0314610177578063081812fc146101a2578063095ea7b3146101df5780630dbe671f14610208575b600080fd5b34801561014657600080fd5b50610161600480360381019061015c9190611ad8565b610529565b60405161016e9190611b20565b60405180910390f35b34801561018357600080fd5b5061018c61060b565b6040516101999190611bd4565b60405180910390f35b3480156101ae57600080fd5b506101c960048036038101906101c49190611c2c565b61069d565b6040516101d69190611c9a565b60405180910390f35b3480156101eb57600080fd5b5061020660048036038101906102019190611ce1565b610722565b005b34801561021457600080fd5b5061021d610839565b60405161022a9190611d30565b60405180910390f35b34801561023f57600080fd5b5061025a60048036038101906102559190611d4b565b61083f565b6040516102679190611d30565b60405180910390f35b34801561027c57600080fd5b5061029760048036038101906102929190611d78565b610857565b005b3480156102a557600080fd5b506102c060048036038101906102bb9190611d78565b6108b7565b005b3480156102ce57600080fd5b506102e960048036038101906102e49190611c2c565b6108d7565b6040516102f69190611c9a565b60405180910390f35b34801561030b57600080fd5b50610314610988565b6040516103219190611d30565b60405180910390f35b34801561033657600080fd5b50610351600480360381019061034c9190611d4b565b61098e565b60405161035e9190611d30565b60405180910390f35b34801561037357600080fd5b5061037c610a45565b005b34801561038a57600080fd5b50610393610acd565b6040516103a09190611d30565b60405180910390f35b3480156103b557600080fd5b506103be610ad3565b6040516103cb9190611e42565b60405180910390f35b3480156103e057600080fd5b506103e9610ae6565b6040516103f69190611c9a565b60405180910390f35b34801561040b57600080fd5b50610414610b10565b6040516104219190611bd4565b60405180910390f35b34801561043657600080fd5b50610451600480360381019061044c9190611e89565b610ba2565b005b61045b610bb8565b005b34801561046957600080fd5b50610484600480360381019061047f9190611ffe565b610d02565b005b34801561049257600080fd5b506104ad60048036038101906104a89190611c2c565b610d64565b6040516104ba9190611bd4565b60405180910390f35b3480156104cf57600080fd5b506104ea60048036038101906104e59190612081565b610e0b565b6040516104f79190611b20565b60405180910390f35b34801561050c57600080fd5b5061052760048036038101906105229190611d4b565b610e9f565b005b60007f80ac58cd000000000000000000000000000000000000000000000000000000007bffffffffffffffffffffffffffffffffffffffffffffffffffffffff1916827bffffffffffffffffffffffffffffffffffffffffffffffffffffffff191614806105f457507f5b5e139f000000000000000000000000000000000000000000000000000000007bffffffffffffffffffffffffffffffffffffffffffffffffffffffff1916827bffffffffffffffffffffffffffffffffffffffffffffffffffffffff1916145b80610604575061060382610f96565b5b9050919050565b60606000805461061a906120f0565b80601f0160208091040260200160405190810160405280929190818152602001828054610646906120f0565b80156106935780601f1061066857610100808354040283529160200191610693565b820191906000526020600020905b81548152906001019060200180831161067657829003601f168201915b5050505050905090565b60006106a882611000565b6106e7576040517f08c379a00000000000000000000000000000000000000000000000000000000081526004016106de90612193565b60405180910390fd5b6004600083815260200190815260200160002060009054906101000a900473ffffffffffffffffffffffffffffffffffffffff169050919050565b600061072d826108d7565b90508073ffffffffffffffffffffffffffffffffffffffff168373ffffffffffffffffffffffffffffffffffffffff160361079d576040517f08c379a000000000000000000000000000000000000000000000000000000000815260040161079490612225565b60405180910390fd5b8073ffffffffffffffffffffffffffffffffffffffff166107bc61106c565b73ffffffffffffffffffffffffffffffffffffffff1614806107eb57506107ea816107e561106c565b610e0b565b5b61082a576040517f08c379a0000000000000000000000000000000000000000000000000000000008152600401610821906122b7565b60405180910390fd5b6108348383611074565b505050565b600a5481565b600c6020528060005260406000206000915090505481565b61086861086261106c565b8261112d565b6108a7576040517f08c379a000000000000000000000000000000000000000000000000000000000815260040161089e90612349565b60405180910390fd5b6108b283838361120b565b505050565b6108d283838360405180602001604052806000815250610d02565b505050565b6000806002600084815260200190815260200160002060009054906101000a900473ffffffffffffffffffffffffffffffffffffffff169050600073ffffffffffffffffffffffffffffffffffffffff168173ffffffffffffffffffffffffffffffffffffffff160361097f576040517f08c379a0000000000000000000000000000000000000000000000000000000008152600401610976906123db565b60405180910390fd5b80915050919050565b600b5481565b60008073ffffffffffffffffffffffffffffffffffffffff168273ffffffffffffffffffffffffffffffffffffffff16036109fe576040517f08c379a00000000000000000000000000000000000000000000000000000000081526004016109f59061246d565b60405180910390fd5b600360008373ffffffffffffffffffffffffffffffffffffffff1673ffffffffffffffffffffffffffffffffffffffff168152602001908152602001600020549050919050565b610a4d61106c565b73ffffffffffffffffffffffffffffffffffffffff16610a6b610ae6565b73ffffffffffffffffffffffffffffffffffffffff1614610ac1576040517f08c379a0000000000000000000000000000000000000000000000000000000008152600401610ab8906124d9565b60405180910390fd5b610acb6000611471565b565b60075481565b600d60009054906101000a900460ff1681565b6000600660009054906101000a900473ffffffffffffffffffffffffffffffffffffffff16905090565b606060018054610b1f906120f0565b80601f0160208091040260200160405190810160405280929190818152602001828054610b4b906120f0565b8015610b985780601f10610b6d57610100808354040283529160200191610b98565b820191906000526020600020905b815481529060010190602001808311610b7b57829003601f168201915b5050505050905090565b610bb4610bad61106c565b8383611537565b5050565b610bc4426007546116a3565b600a819055506000610bd9600a54600a6116b9565b90506001811015610be957600190505b610c1f610bf73460016116cf565b610c1a600854610c1585600954610c0e9190612528565b60646116b9565b6116a3565b6116b9565b600c60003373ffffffffffffffffffffffffffffffffffffffff1673ffffffffffffffffffffffffffffffffffffffff16815260200190815260200160002054610c699190612582565b600c60003373ffffffffffffffffffffffffffffffffffffffff1673ffffffffffffffffffffffffffffffffffffffff16815260200190815260200160002081905550600c60003373ffffffffffffffffffffffffffffffffffffffff1673ffffffffffffffffffffffffffffffffffffffff16815260200190815260200160002054600b54610cf991906125d8565b600b8190555050565b610d13610d0d61106c565b8361112d565b610d52576040517f08c379a0000000000000000000000000000000000000000000000000000000008152600401610d4990612349565b60405180910390fd5b610d5e848484846116e5565b50505050565b6060610d6f82611000565b610dae576040517f08c379a0000000000000000000000000000000000000000000000000000000008152600401610da59061267e565b60405180910390fd5b6000610db8611741565b90506000815111610dd85760405180602001604052806000815250610e03565b80610de284611758565b604051602001610df39291906126da565b6040516020818303038152906040525b915050919050565b6000600560008473ffffffffffffffffffffffffffffffffffffffff1673ffffffffffffffffffffffffffffffffffffffff16815260200190815260200160002060008373ffffffffffffffffffffffffffffffffffffffff1673ffffffffffffffffffffffffffffffffffffffff16815260200190815260200160002060009054906101000a900460ff16905092915050565b610ea761106c565b73ffffffffffffffffffffffffffffffffffffffff16610ec5610ae6565b73ffffffffffffffffffffffffffffffffffffffff1614610f1b576040517f08c379a0000000000000000000000000000000000000000000000000000000008152600401610f12906124d9565b60405180910390fd5b600073ffffffffffffffffffffffffffffffffffffffff168173ffffffffffffffffffffffffffffffffffffffff1603610f8a576040517f08c379a0000000000000000000000000000000000000000000000000000000008152600401610f8190612770565b60405180910390fd5b610f9381611471565b50565b60007f01ffc9a7000000000000000000000000000000000000000000000000000000007bffffffffffffffffffffffffffffffffffffffffffffffffffffffff1916827bffffffffffffffffffffffffffffffffffffffffffffffffffffffff1916149050919050565b60008073ffffffffffffffffffffffffffffffffffffffff166002600084815260200190815260200160002060009054906101000a900473ffffffffffffffffffffffffffffffffffffffff1673ffffffffffffffffffffffffffffffffffffffff1614159050919050565b600033905090565b816004600083815260200190815260200160002060006101000a81548173ffffffffffffffffffffffffffffffffffffffff021916908373ffffffffffffffffffffffffffffffffffffffff160217905550808273ffffffffffffffffffffffffffffffffffffffff166110e7836108d7565b73ffffffffffffffffffffffffffffffffffffffff167f8c5be1e5ebec7d5bd14f71427d1e84f3dd0314c0f7b2291e5b200ac8c7c3b92560405160405180910390a45050565b600061113882611000565b611177576040517f08c379a000000000000000000000000000000000000000000000000000000000815260040161116e90612802565b60405180910390fd5b6000611182836108d7565b90508073ffffffffffffffffffffffffffffffffffffffff168473ffffffffffffffffffffffffffffffffffffffff1614806111c457506111c38185610e0b565b5b8061120257508373ffffffffffffffffffffffffffffffffffffffff166111ea8461069d565b73ffffffffffffffffffffffffffffffffffffffff16145b91505092915050565b8273ffffffffffffffffffffffffffffffffffffffff1661122b826108d7565b73ffffffffffffffffffffffffffffffffffffffff1614611281576040517f08c379a000000000000000000000000000000000000000000000000000000000815260040161127890612894565b60405180910390fd5b600073ffffffffffffffffffffffffffffffffffffffff168273ffffffffffffffffffffffffffffffffffffffff16036112f0576040517f08c379a00000000000000000000000000000000000000000000000000000000081526004016112e790612926565b60405180910390fd5b6112fb8383836118b8565b611306600082611074565b6001600360008573ffffffffffffffffffffffffffffffffffffffff1673ffffffffffffffffffffffffffffffffffffffff168152602001908152602001600020600082825461135691906125d8565b925050819055506001600360008473ffffffffffffffffffffffffffffffffffffffff1673ffffffffffffffffffffffffffffffffffffffff16815260200190815260200160002060008282546113ad9190612582565b92505081905550816002600083815260200190815260200160002060006101000a81548173ffffffffffffffffffffffffffffffffffffffff021916908373ffffffffffffffffffffffffffffffffffffffff160217905550808273ffffffffffffffffffffffffffffffffffffffff168473ffffffffffffffffffffffffffffffffffffffff167fddf252ad1be2c89b69c2b068fc378daa952ba7f163c4a11628f55a4df523b3ef60405160405180910390a461146c8383836118bd565b505050565b6000600660009054906101000a900473ffffffffffffffffffffffffffffffffffffffff16905081600660006101000a81548173ffffffffffffffffffffffffffffffffffffffff021916908373ffffffffffffffffffffffffffffffffffffffff1602179055508173ffffffffffffffffffffffffffffffffffffffff168173ffffffffffffffffffffffffffffffffffffffff167f8be0079c531659141344cd1fd0a4f28419497f9722a3daafe3b4186f6b6457e060405160405180910390a35050565b8173ffffffffffffffffffffffffffffffffffffffff168373ffffffffffffffffffffffffffffffffffffffff16036115a5576040517f08c379a000000000000000000000000000000000000000000000000000000000815260040161159c90612992565b60405180910390fd5b80600560008573ffffffffffffffffffffffffffffffffffffffff1673ffffffffffffffffffffffffffffffffffffffff16815260200190815260200160002060008473ffffffffffffffffffffffffffffffffffffffff1673ffffffffffffffffffffffffffffffffffffffff16815260200190815260200160002060006101000a81548160ff0219169083151502179055508173ffffffffffffffffffffffffffffffffffffffff168373ffffffffffffffffffffffffffffffffffffffff167f17307eab39ab6107e8899845ad3d59bd9653f200f220920489ca2b5937696c31836040516116969190611b20565b60405180910390a3505050565b600081836116b191906125d8565b905092915050565b600081836116c791906129e1565b905092915050565b600081836116dd9190612528565b905092915050565b6116f084848461120b565b6116fc848484846118c2565b61173b576040517f08c379a000000000000000000000000000000000000000000000000000000000815260040161173290612a84565b60405180910390fd5b50505050565b606060405180602001604052806000815250905090565b60606000820361179f576040518060400160405280600181526020017f300000000000000000000000000000000000000000000000000000000000000081525090506118b3565b600082905060005b600082146117d15780806117ba90612aa4565b915050600a826117ca91906129e1565b91506117a7565b60008167ffffffffffffffff8111156117ed576117ec611ed3565b5b6040519080825280601f01601f19166020018201604052801561181f5781602001600182028036833780820191505090505b5090505b600085146118ac5760018261183891906125d8565b9150600a856118479190612aec565b60306118539190612582565b60f81b81838151811061186957611868612b1d565b5b60200101907effffffffffffffffffffffffffffffffffffffffffffffffffffffffffffff1916908160001a905350600a856118a591906129e1565b9450611823565b8093505050505b919050565b505050565b505050565b60006118e38473ffffffffffffffffffffffffffffffffffffffff16611a49565b15611a3c578373ffffffffffffffffffffffffffffffffffffffff1663150b7a0261190c61106c565b8786866040518563ffffffff1660e01b815260040161192e9493929190612ba1565b6020604051808303816000875af192505050801561196a57506040513d601f19601f820116820180604052508101906119679190612c02565b60015b6119ec573d806000811461199a576040519150601f19603f3d011682016040523d82523d6000602084013e61199f565b606091505b5060008151036119e4576040517f08c379a00000000000000000000000000000000000000000000000000000000081526004016119db90612a84565b60405180910390fd5b805181602001fd5b63150b7a0260e01b7bffffffffffffffffffffffffffffffffffffffffffffffffffffffff1916817bffffffffffffffffffffffffffffffffffffffffffffffffffffffff191614915050611a41565b600190505b949350505050565b6000808273ffffffffffffffffffffffffffffffffffffffff163b119050919050565b6000604051905090565b600080fd5b600080fd5b60007fffffffff0000000000000000000000000000000000000000000000000000000082169050919050565b611ab581611a80565b8114611ac057600080fd5b50565b600081359050611ad281611aac565b92915050565b600060208284031215611aee57611aed611a76565b5b6000611afc84828501611ac3565b91505092915050565b60008115159050919050565b611b1a81611b05565b82525050565b6000602082019050611b356000830184611b11565b92915050565b600081519050919050565b600082825260208201905092915050565b60005b83811015611b75578082015181840152602081019050611b5a565b83811115611b84576000848401525b50505050565b6000601f19601f8301169050919050565b6000611ba682611b3b565b611bb08185611b46565b9350611bc0818560208601611b57565b611bc981611b8a565b840191505092915050565b60006020820190508181036000830152611bee8184611b9b565b905092915050565b6000819050919050565b611c0981611bf6565b8114611c1457600080fd5b50565b600081359050611c2681611c00565b92915050565b600060208284031215611c4257611c41611a76565b5b6000611c5084828501611c17565b91505092915050565b600073ffffffffffffffffffffffffffffffffffffffff82169050919050565b6000611c8482611c59565b9050919050565b611c9481611c79565b82525050565b6000602082019050611caf6000830184611c8b565b92915050565b611cbe81611c79565b8114611cc957600080fd5b50565b600081359050611cdb81611cb5565b92915050565b60008060408385031215611cf857611cf7611a76565b5b6000611d0685828601611ccc565b9250506020611d1785828601611c17565b9150509250929050565b611d2a81611bf6565b82525050565b6000602082019050611d456000830184611d21565b92915050565b600060208284031215611d6157611d60611a76565b5b6000611d6f84828501611ccc565b91505092915050565b600080600060608486031215611d9157611d90611a76565b5b6000611d9f86828701611ccc565b9350506020611db086828701611ccc565b9250506040611dc186828701611c17565b9150509250925092565b7f4e487b7100000000000000000000000000000000000000000000000000000000600052602160045260246000fd5b60048110611e0b57611e0a611dcb565b5b50565b6000819050611e1c82611dfa565b919050565b6000611e2c82611e0e565b9050919050565b611e3c81611e21565b82525050565b6000602082019050611e576000830184611e33565b92915050565b611e6681611b05565b8114611e7157600080fd5b50565b600081359050611e8381611e5d565b92915050565b60008060408385031215611ea057611e9f611a76565b5b6000611eae85828601611ccc565b9250506020611ebf85828601611e74565b9150509250929050565b600080fd5b600080fd5b7f4e487b7100000000000000000000000000000000000000000000000000000000600052604160045260246000fd5b611f0b82611b8a565b810181811067ffffffffffffffff82111715611f2a57611f29611ed3565b5b80604052505050565b6000611f3d611a6c565b9050611f498282611f02565b919050565b600067ffffffffffffffff821115611f6957611f68611ed3565b5b611f7282611b8a565b9050602081019050919050565b82818337600083830152505050565b6000611fa1611f9c84611f4e565b611f33565b905082815260208101848484011115611fbd57611fbc611ece565b5b611fc8848285611f7f565b509392505050565b600082601f830112611fe557611fe4611ec9565b5b8135611ff5848260208601611f8e565b91505092915050565b6000806000806080858703121561201857612017611a76565b5b600061202687828801611ccc565b945050602061203787828801611ccc565b935050604061204887828801611c17565b925050606085013567ffffffffffffffff81111561206957612068611a7b565b5b61207587828801611fd0565b91505092959194509250565b6000806040838503121561209857612097611a76565b5b60006120a685828601611ccc565b92505060206120b785828601611ccc565b9150509250929050565b7f4e487b7100000000000000000000000000000000000000000000000000000000600052602260045260246000fd5b6000600282049050600182168061210857607f821691505b60208210810361211b5761211a6120c1565b5b50919050565b7f4552433732313a20617070726f76656420717565727920666f72206e6f6e657860008201527f697374656e7420746f6b656e0000000000000000000000000000000000000000602082015250565b600061217d602c83611b46565b915061218882612121565b604082019050919050565b600060208201905081810360008301526121ac81612170565b9050919050565b7f4552433732313a20617070726f76616c20746f2063757272656e74206f776e6560008201527f7200000000000000000000000000000000000000000000000000000000000000602082015250565b600061220f602183611b46565b915061221a826121b3565b604082019050919050565b6000602082019050818103600083015261223e81612202565b9050919050565b7f4552433732313a20617070726f76652063616c6c6572206973206e6f74206f7760008201527f6e6572206e6f7220617070726f76656420666f7220616c6c0000000000000000602082015250565b60006122a1603883611b46565b91506122ac82612245565b604082019050919050565b600060208201905081810360008301526122d081612294565b9050919050565b7f4552433732313a207472616e736665722063616c6c6572206973206e6f74206f60008201527f776e6572206e6f7220617070726f766564000000000000000000000000000000602082015250565b6000612333603183611b46565b915061233e826122d7565b604082019050919050565b6000602082019050818103600083015261236281612326565b9050919050565b7f4552433732313a206f776e657220717565727920666f72206e6f6e657869737460008201527f656e7420746f6b656e0000000000000000000000000000000000000000000000602082015250565b60006123c5602983611b46565b91506123d082612369565b604082019050919050565b600060208201905081810360008301526123f4816123b8565b9050919050565b7f4552433732313a2062616c616e636520717565727920666f7220746865207a6560008201527f726f206164647265737300000000000000000000000000000000000000000000602082015250565b6000612457602a83611b46565b9150612462826123fb565b604082019050919050565b600060208201905081810360008301526124868161244a565b9050919050565b7f4f776e61626c653a2063616c6c6572206973206e6f7420746865206f776e6572600082015250565b60006124c3602083611b46565b91506124ce8261248d565b602082019050919050565b600060208201905081810360008301526124f2816124b6565b9050919050565b7f4e487b7100000000000000000000000000000000000000000000000000000000600052601160045260246000fd5b600061253382611bf6565b915061253e83611bf6565b9250817fffffffffffffffffffffffffffffffffffffffffffffffffffffffffffffffff0483118215151615612577576125766124f9565b5b828202905092915050565b600061258d82611bf6565b915061259883611bf6565b9250827fffffffffffffffffffffffffffffffffffffffffffffffffffffffffffffffff038211156125cd576125cc6124f9565b5b828201905092915050565b60006125e382611bf6565b91506125ee83611bf6565b925082821015612601576126006124f9565b5b828203905092915050565b7f4552433732314d657461646174613a2055524920717565727920666f72206e6f60008201527f6e6578697374656e7420746f6b656e0000000000000000000000000000000000602082015250565b6000612668602f83611b46565b91506126738261260c565b604082019050919050565b600060208201905081810360008301526126978161265b565b9050919050565b600081905092915050565b60006126b482611b3b565b6126be818561269e565b93506126ce818560208601611b57565b80840191505092915050565b60006126e682856126a9565b91506126f282846126a9565b91508190509392505050565b7f4f776e61626c653a206e6577206f776e657220697320746865207a65726f206160008201527f6464726573730000000000000000000000000000000000000000000000000000602082015250565b600061275a602683611b46565b9150612765826126fe565b604082019050919050565b600060208201905081810360008301526127898161274d565b9050919050565b7f4552433732313a206f70657261746f7220717565727920666f72206e6f6e657860008201527f697374656e7420746f6b656e0000000000000000000000000000000000000000602082015250565b60006127ec602c83611b46565b91506127f782612790565b604082019050919050565b6000602082019050818103600083015261281b816127df565b9050919050565b7f4552433732313a207472616e736665722066726f6d20696e636f72726563742060008201527f6f776e6572000000000000000000000000000000000000000000000000000000602082015250565b600061287e602583611b46565b915061288982612822565b604082019050919050565b600060208201905081810360008301526128ad81612871565b9050919050565b7f4552433732313a207472616e7366657220746f20746865207a65726f2061646460008201527f7265737300000000000000000000000000000000000000000000000000000000602082015250565b6000612910602483611b46565b915061291b826128b4565b604082019050919050565b6000602082019050818103600083015261293f81612903565b9050919050565b7f4552433732313a20617070726f766520746f2063616c6c657200000000000000600082015250565b600061297c601983611b46565b915061298782612946565b602082019050919050565b600060208201905081810360008301526129ab8161296f565b9050919050565b7f4e487b7100000000000000000000000000000000000000000000000000000000600052601260045260246000fd5b60006129ec82611bf6565b91506129f783611bf6565b925082612a0757612a066129b2565b5b828204905092915050565b7f4552433732313a207472616e7366657220746f206e6f6e20455243373231526560008201527f63656976657220696d706c656d656e7465720000000000000000000000000000602082015250565b6000612a6e603283611b46565b9150612a7982612a12565b604082019050919050565b60006020820190508181036000830152612a9d81612a61565b9050919050565b6000612aaf82611bf6565b91507fffffffffffffffffffffffffffffffffffffffffffffffffffffffffffffffff8203612ae157612ae06124f9565b5b600182019050919050565b6000612af782611bf6565b9150612b0283611bf6565b925082612b1257612b116129b2565b5b828206905092915050565b7f4e487b7100000000000000000000000000000000000000000000000000000000600052603260045260246000fd5b600081519050919050565b600082825260208201905092915050565b6000612b7382612b4c565b612b7d8185612b57565b9350612b8d818560208601611b57565b612b9681611b8a565b840191505092915050565b6000608082019050612bb66000830187611c8b565b612bc36020830186611c8b565b612bd06040830185611d21565b8181036060830152612be28184612b68565b905095945050505050565b600081519050612bfc81611aac565b92915050565b600060208284031215612c1857612c17611a76565b5b6000612c2684828501612bed565b9150509291505056fea2646970667358221220672ecfa007be6cedbaa491107f18d95293df21f6d0534675427dd7556a3f07f864736f6c634300080d0033",
  "immutableReferences": {},
  "source": "// SPDX-License-Identifier: MIT\npragma solidity ^0.8.4;\n\nimport \"@openzeppelin/contracts/token/ERC721/ERC721.sol\";\nimport \"@openzeppelin/contracts/access/Ownable.sol\";\nimport \"@openzeppelin/contracts/utils/math/SafeMath.sol\";\n\n\ncontract MyToken is ERC721, Ownable {\n\n    uint256 public startTime = block.timestamp;\n    uint256 priceWei = 1000000000000000;\n    uint discount = 5;\n    uint public a = 0;\n    uint public sharesLeft;\n\n    constructor() ERC721(\"MyToken\", \"MNFT\") {\n        sharesLeft = 1000000;\n        \n    }\n    mapping(address => uint) public shareOf;\n    enum auctionState { started, running, ended, cancelled }\n    auctionState public AuctionState;\n    \n    function sub(uint256 a, uint256 b) internal pure returns (uint256) {\n        return a - b;\n    }\n\n    function mul(uint256 a, uint256 b) internal pure returns (uint256) {\n        return a * b;\n    }\n\n    function div(uint256 a, uint256 b) internal pure returns (uint256) {\n        return a / b;\n    }\n\n    function buy() public payable {\n        a = sub(block.timestamp, startTime);\n        uint week;\n        week = div(a,10);\n        if(week < 1){\n            week = 1;\n        }\n        // uint discPrice;\n        // discPrice = sub(priceWei, div(5, 100));\n        shareOf[msg.sender] = shareOf[msg.sender] + div(mul(msg.value, 1), sub(priceWei, div(discount * week, 100)));\n        sharesLeft = sharesLeft - shareOf[msg.sender];\n    }\n\n}\n",
  "sourcePath": "/home/ankur/Desktop/blockchain/token_sale/contracts/MyToken.sol",
  "compiler": {
    "name": "solc",
    "version": "0.8.13+commit.abaa5c0e.Emscripten.clang"
  },
  "schemaVersion": "3.4.7",
  "updatedAt": "2022-05-19T23:58:23.063Z",
  "networkType": "ethereum",
  "devdoc": {
    "kind": "dev",
    "methods": {
      "approve(address,uint256)": {
        "details": "See {IERC721-approve}."
      },
      "balanceOf(address)": {
        "details": "See {IERC721-balanceOf}."
      },
      "getApproved(uint256)": {
        "details": "See {IERC721-getApproved}."
      },
      "isApprovedForAll(address,address)": {
        "details": "See {IERC721-isApprovedForAll}."
      },
      "name()": {
        "details": "See {IERC721Metadata-name}."
      },
      "owner()": {
        "details": "Returns the address of the current owner."
      },
      "ownerOf(uint256)": {
        "details": "See {IERC721-ownerOf}."
      },
      "renounceOwnership()": {
        "details": "Leaves the contract without owner. It will not be possible to call `onlyOwner` functions anymore. Can only be called by the current owner. NOTE: Renouncing ownership will leave the contract without an owner, thereby removing any functionality that is only available to the owner."
      },
      "safeTransferFrom(address,address,uint256)": {
        "details": "See {IERC721-safeTransferFrom}."
      },
      "safeTransferFrom(address,address,uint256,bytes)": {
        "details": "See {IERC721-safeTransferFrom}."
      },
      "setApprovalForAll(address,bool)": {
        "details": "See {IERC721-setApprovalForAll}."
      },
      "supportsInterface(bytes4)": {
        "details": "See {IERC165-supportsInterface}."
      },
      "symbol()": {
        "details": "See {IERC721Metadata-symbol}."
      },
      "tokenURI(uint256)": {
        "details": "See {IERC721Metadata-tokenURI}."
      },
      "transferFrom(address,address,uint256)": {
        "details": "See {IERC721-transferFrom}."
      },
      "transferOwnership(address)": {
        "details": "Transfers ownership of the contract to a new account (`newOwner`). Can only be called by the current owner."
      }
    },
    "version": 1
  },
  "userdoc": {
    "kind": "user",
    "methods": {},
    "version": 1
  }
}